{"abi":[{"type":"constructor","inputs":[{"name":"newAddr","type":"address","internalType":"address"},{"name":"feeAmt","type":"uint256","internalType":"uint256"},{"name":"basisFee","type":"uint256","internalType":"uint256"}],"stateMutability":"nonpayable"},{"type":"receive","stateMutability":"payable"},{"type":"function","name":"addComment","inputs":[{"name":"token","type":"address","internalType":"address"},{"name":"message","type":"string","internalType":"string"}],"outputs":[],"stateMutability":"nonpayable"},{"type":"function","name":"bondingCurve","inputs":[{"name":"","type":"address","internalType":"address"}],"outputs":[{"name":"tokenMint","type":"address","internalType":"address"},{"name":"virtualTokenReserves","type":"uint256","internalType":"uint256"},{"name":"virtualEthReserves","type":"uint256","internalType":"uint256"},{"name":"realTokenReserves","type":"uint256","internalType":"uint256"},{"name":"realEthReserves","type":"uint256","internalType":"uint256"},{"name":"tokenTotalSupply","type":"uint256","internalType":"uint256"},{"name":"mcapLimit","type":"uint256","internalType":"uint256"},{"name":"complete","type":"bool","internalType":"bool"}],"stateMutability":"view"},{"type":"function","name":"buy","inputs":[{"name":"token","type":"address","internalType":"address"},{"name":"amount","type":"uint256","internalType":"uint256"},{"name":"maxEthCost","type":"uint256","internalType":"uint256"}],"outputs":[],"stateMutability":"payable"},{"type":"function","name":"calculateEthCost","inputs":[{"name":"token","type":"tuple","internalType":"struct PumpFun.Token","components":[{"name":"tokenMint","type":"address","internalType":"address"},{"name":"virtualTokenReserves","type":"uint256","internalType":"uint256"},{"name":"virtualEthReserves","type":"uint256","internalType":"uint256"},{"name":"realTokenReserves","type":"uint256","internalType":"uint256"},{"name":"realEthReserves","type":"uint256","internalType":"uint256"},{"name":"tokenTotalSupply","type":"uint256","internalType":"uint256"},{"name":"mcapLimit","type":"uint256","internalType":"uint256"},{"name":"complete","type":"bool","internalType":"bool"}]},{"name":"tokenAmount","type":"uint256","internalType":"uint256"}],"outputs":[{"name":"","type":"uint256","internalType":"uint256"}],"stateMutability":"pure"},{"type":"function","name":"createPool","inputs":[{"name":"token","type":"address","internalType":"address"},{"name":"amount","type":"uint256","internalType":"uint256"}],"outputs":[],"stateMutability":"payable"},{"type":"function","name":"getAllTokens","inputs":[],"outputs":[{"name":"","type":"address[]","internalType":"address[]"}],"stateMutability":"view"},{"type":"function","name":"getBondingCurve","inputs":[{"name":"mint","type":"address","internalType":"address"}],"outputs":[{"name":"","type":"tuple","internalType":"struct PumpFun.Token","components":[{"name":"tokenMint","type":"address","internalType":"address"},{"name":"virtualTokenReserves","type":"uint256","internalType":"uint256"},{"name":"virtualEthReserves","type":"uint256","internalType":"uint256"},{"name":"realTokenReserves","type":"uint256","internalType":"uint256"},{"name":"realEthReserves","type":"uint256","internalType":"uint256"},{"name":"tokenTotalSupply","type":"uint256","internalType":"uint256"},{"name":"mcapLimit","type":"uint256","internalType":"uint256"},{"name":"complete","type":"bool","internalType":"bool"}]}],"stateMutability":"view"},{"type":"function","name":"getComments","inputs":[{"name":"token","type":"address","internalType":"address"}],"outputs":[{"name":"","type":"tuple[]","internalType":"struct PumpFun.Comment[]","components":[{"name":"user","type":"address","internalType":"address"},{"name":"message","type":"string","internalType":"string"},{"name":"timestamp","type":"uint256","internalType":"uint256"}]}],"stateMutability":"view"},{"type":"function","name":"getContractBalance","inputs":[],"outputs":[{"name":"","type":"uint256","internalType":"uint256"}],"stateMutability":"view"},{"type":"function","name":"getCreateFee","inputs":[],"outputs":[{"name":"","type":"uint256","internalType":"uint256"}],"stateMutability":"view"},{"type":"function","name":"getTokenDetail","inputs":[{"name":"token","type":"address","internalType":"address"}],"outputs":[{"name":"tokenInfo","type":"tuple","internalType":"struct PumpFun.Token","components":[{"name":"tokenMint","type":"address","internalType":"address"},{"name":"virtualTokenReserves","type":"uint256","internalType":"uint256"},{"name":"virtualEthReserves","type":"uint256","internalType":"uint256"},{"name":"realTokenReserves","type":"uint256","internalType":"uint256"},{"name":"realEthReserves","type":"uint256","internalType":"uint256"},{"name":"tokenTotalSupply","type":"uint256","internalType":"uint256"},{"name":"mcapLimit","type":"uint256","internalType":"uint256"},{"name":"complete","type":"bool","internalType":"bool"}]},{"name":"comments","type":"tuple[]","internalType":"struct PumpFun.Comment[]","components":[{"name":"user","type":"address","internalType":"address"},{"name":"message","type":"string","internalType":"string"},{"name":"timestamp","type":"uint256","internalType":"uint256"}]},{"name":"buyers","type":"address[]","internalType":"address[]"},{"name":"sellers","type":"address[]","internalType":"address[]"}],"stateMutability":"view"},{"type":"function","name":"getTraders","inputs":[{"name":"token","type":"address","internalType":"address"}],"outputs":[{"name":"buyers","type":"address[]","internalType":"address[]"},{"name":"sellers","type":"address[]","internalType":"address[]"}],"stateMutability":"view"},{"type":"function","name":"sell","inputs":[{"name":"token","type":"address","internalType":"address"},{"name":"amount","type":"uint256","internalType":"uint256"},{"name":"minEthOutput","type":"uint256","internalType":"uint256"}],"outputs":[],"stateMutability":"nonpayable"},{"type":"function","name":"setFeeAmount","inputs":[{"name":"newBasisPoint","type":"uint256","internalType":"uint256"},{"name":"newCreateFee","type":"uint256","internalType":"uint256"}],"outputs":[],"stateMutability":"nonpayable"},{"type":"function","name":"setFeeRecipient","inputs":[{"name":"newAddr","type":"address","internalType":"address"}],"outputs":[],"stateMutability":"nonpayable"},{"type":"function","name":"setInitialVirtualReserves","inputs":[{"name":"initToken","type":"uint256","internalType":"uint256"},{"name":"initEth","type":"uint256","internalType":"uint256"}],"outputs":[],"stateMutability":"nonpayable"},{"type":"function","name":"setMcapLimit","inputs":[{"name":"newLimit","type":"uint256","internalType":"uint256"}],"outputs":[],"stateMutability":"nonpayable"},{"type":"function","name":"setOwner","inputs":[{"name":"newAddr","type":"address","internalType":"address"}],"outputs":[],"stateMutability":"nonpayable"},{"type":"function","name":"setTotalSupply","inputs":[{"name":"newSupply","type":"uint256","internalType":"uint256"}],"outputs":[],"stateMutability":"nonpayable"},{"type":"function","name":"withdraw","inputs":[{"name":"token","type":"address","internalType":"address"}],"outputs":[],"stateMutability":"nonpayable"},{"type":"event","name":"CoinFlipBet","inputs":[{"name":"player","type":"address","indexed":true,"internalType":"address"},{"name":"amount","type":"uint256","indexed":false,"internalType":"uint256"},{"name":"choice","type":"bool","indexed":false,"internalType":"bool"},{"name":"result","type":"bool","indexed":false,"internalType":"bool"},{"name":"timestamp","type":"uint256","indexed":false,"internalType":"uint256"}],"anonymous":false},{"type":"event","name":"CoinFlipWin","inputs":[{"name":"player","type":"address","indexed":true,"internalType":"address"},{"name":"amount","type":"uint256","indexed":false,"internalType":"uint256"}],"anonymous":false},{"type":"event","name":"Complete","inputs":[{"name":"user","type":"address","indexed":true,"internalType":"address"},{"name":"mint","type":"address","indexed":true,"internalType":"address"},{"name":"timestamp","type":"uint256","indexed":false,"internalType":"uint256"}],"anonymous":false},{"type":"event","name":"CreatePool","inputs":[{"name":"mint","type":"address","indexed":true,"internalType":"address"},{"name":"user","type":"address","indexed":true,"internalType":"address"}],"anonymous":false},{"type":"event","name":"Trade","inputs":[{"name":"mint","type":"address","indexed":true,"internalType":"address"},{"name":"ethAmount","type":"uint256","indexed":false,"internalType":"uint256"},{"name":"tokenAmount","type":"uint256","indexed":false,"internalType":"uint256"},{"name":"isBuy","type":"bool","indexed":false,"internalType":"bool"},{"name":"user","type":"address","indexed":true,"internalType":"address"},{"name":"timestamp","type":"uint256","indexed":false,"internalType":"uint256"},{"name":"virtualEthReserves","type":"uint256","indexed":false,"internalType":"uint256"},{"name":"virtualTokenReserves","type":"uint256","indexed":false,"internalType":"uint256"}],"anonymous":false},{"type":"error","name":"ReentrancyGuardReentrantCall","inputs":[]}],"bytecode":{"object":"0x60806040526000600955348015601457600080fd5b50604051612455380380612455833981016040819052603191609f565b600160008190558054336001600160a01b031991821617909155600280549091166001600160a01b0394909416939093179092556008556007556b033b2e3c9fd0803ce8000000600381905568a2a15d09519be0000060045560055569152d02c7e14af680000060065560e0565b60008060006060848603121560b357600080fd5b83516001600160a01b038116811460c957600080fd5b602085015160409095015190969495509392505050565b612366806100ef6000396000f3fe6080604052600436106101235760003560e01c80636f9fb98a116100a0578063e2005b9811610064578063e2005b98146103be578063e74b981b146103de578063e8dc132b146103fe578063efc2ead81461041e578063f7ea7a3d1461043e57600080fd5b80636f9fb98a1461028b57806383db2a211461029e578063a59ac6dd146102cb578063c16c72c0146102de578063d0c58e481461030c57600080fd5b80634244a6e2116100e75780634244a6e2146101ec57806351cff8d91461020b578063616af1751461022b578063648f6aeb1461024b5780636a2724621461026b57600080fd5b806312d361711461012f57806313af40351461014457806317fe375f1461016457806329d84e581461019a5780632a5c792a146101ca57600080fd5b3661012a57005b600080fd5b61014261013d366004611c70565b61045e565b005b34801561015057600080fd5b5061014261015f366004611c9a565b610898565b34801561017057600080fd5b5061018461017f366004611c9a565b61092d565b6040516101919190611d76565b60405180910390f35b3480156101a657600080fd5b506101ba6101b5366004611c9a565b610a57565b6040516101919493929190611e26565b3480156101d657600080fd5b506101df610cbc565b6040516101919190611e7c565b3480156101f857600080fd5b506008545b604051908152602001610191565b34801561021757600080fd5b50610142610226366004611c9a565b610d1e565b34801561023757600080fd5b506101fd610246366004611f11565b610e70565b34801561025757600080fd5b50610142610266366004611fa7565b610ecb565b34801561027757600080fd5b50610142610286366004611fc0565b610f1a565b34801561029757600080fd5b50476101fd565b3480156102aa57600080fd5b506102be6102b9366004611c9a565b6112e6565b6040516101919190611ff3565b6101426102d9366004611fc0565b61136d565b3480156102ea57600080fd5b506102fe6102f9366004611c9a565b61185b565b604051610191929190612002565b34801561031857600080fd5b50610377610327366004611c9a565b600c60205260009081526040902080546001820154600283015460038401546004850154600586015460068701546007909701546001600160a01b03909616969495939492939192909160ff1688565b604080516001600160a01b0390991689526020890197909752958701949094526060860192909252608085015260a084015260c0830152151560e082015261010001610191565b3480156103ca57600080fd5b506101426103d9366004612030565b611940565b3480156103ea57600080fd5b506101426103f9366004611c9a565b611a5e565b34801561040a57600080fd5b506101426104193660046120db565b611af3565b34801561042a57600080fd5b506101426104393660046120db565b611b54565b34801561044a57600080fd5b50610142610459366004611fa7565b611bb5565b600081116104b35760405162461bcd60e51b815260206004820152601c60248201527f437265617465506f6f6c3a204c6172676572207468616e205a65726f0000000060448201526064015b60405180910390fd5b6002546001600160a01b031661050b5760405162461bcd60e51b815260206004820152601c60248201527f437265617465506f6f6c3a204e6f6e205a65726f20416464726573730000000060448201526064016104aa565b60085434101561055d5760405162461bcd60e51b815260206004820152601860248201527f437265617465506f6f6c3a2056616c756520416d6f756e74000000000000000060448201526064016104aa565b6040516323b872dd60e01b8152336004820152306024820152604481018290526001600160a01b038316906323b872dd906064016020604051808303816000875af11580156105b0573d6000803e3d6000fd5b505050506040513d601f19601f820116820180604052508101906105d491906120fd565b506002546008546040516001600160a01b039092169181156108fc0291906000818181858888f19350505050158015610611573d6000803e3d6000fd5b50604051806101000160405280836001600160a01b0316815260200160035481526020016004548152602001828152602001600081526020016005548152602001600654815260200160001515815250600c6000846001600160a01b03166001600160a01b0316815260200190815260200160002060008201518160000160006101000a8154816001600160a01b0302191690836001600160a01b031602179055506020820151816001015560408201518160020155606082015181600301556080820151816004015560a0820151816005015560c0820151816006015560e08201518160070160006101000a81548160ff021916908315150217905550905050600b829080600181540180825580915050600190039060005260206000200160009091909190916101000a8154816001600160a01b0302191690836001600160a01b03160217905550600c6000836001600160a01b03166001600160a01b03168152602001908152602001600020600d6000846001600160a01b03166001600160a01b031681526020019081526020016000206000016000820160009054906101000a90046001600160a01b03168160000160006101000a8154816001600160a01b0302191690836001600160a01b031602179055506001820154816001015560028201548160020155600382015481600301556004820154816004015560058201548160050155600682015481600601556007820160009054906101000a900460ff168160070160006101000a81548160ff021916908315150217905550905050336001600160a01b0316826001600160a01b03167fdbd2a1ea6808362e6adbec4db4969cbc11e3b0b28fb6c74cb342defaaf1daada60405160405180910390a35050565b6001546001600160a01b031633146108c25760405162461bcd60e51b81526004016104aa9061211a565b6001600160a01b03811661090b5760405162461bcd60e51b815260206004820152601060248201526f4e6f6e207a65726f204164647265737360801b60448201526064016104aa565b600180546001600160a01b0319166001600160a01b0392909216919091179055565b6001600160a01b0381166000908152600d60209081526040808320600801805482518185028101850190935280835260609492939192909184015b82821015610a4c57600084815260209081902060408051606081019091526003850290910180546001600160a01b0316825260018101805492939192918401916109b19061213d565b80601f01602080910402602001604051908101604052809291908181526020018280546109dd9061213d565b8015610a2a5780601f106109ff57610100808354040283529160200191610a2a565b820191906000526020600020905b815481529060010190602001808311610a0d57829003601f168201915b5050505050815260200160028201548152505081526020019060010190610968565b505050509050919050565b610a5f611c04565b6001600160a01b038083166000908152600d6020908152604080832081516101008101835281549095168552600181015485840152600281015485830152600381015460608681019190915260048201546080870152600582015460a0870152600682015460c0870152600782015460ff16151560e08701526008820180548451818702810187019095528085529196879687969495919492936009870193600a8801939286929184015b82821015610bee57600084815260209081902060408051606081019091526003850290910180546001600160a01b031682526001810180549293919291840191610b539061213d565b80601f0160208091040260200160405190810160405280929190818152602001828054610b7f9061213d565b8015610bcc5780601f10610ba157610100808354040283529160200191610bcc565b820191906000526020600020905b815481529060010190602001808311610baf57829003601f168201915b5050505050815260200160028201548152505081526020019060010190610b0a565b50505050925081805480602002602001604051908101604052809291908181526020018280548015610c4957602002820191906000526020600020905b81546001600160a01b03168152600190910190602001808311610c2b575b5050505050915080805480602002602001604051908101604052809291908181526020018280548015610ca557602002820191906000526020600020905b81546001600160a01b03168152600190910190602001808311610c87575b505050505090509450945094509450509193509193565b6060600b805480602002602001604051908101604052809291908181526020018280548015610d1457602002820191906000526020600020905b81546001600160a01b03168152600190910190602001808311610cf6575b5050505050905090565b6001546001600160a01b03163314610d485760405162461bcd60e51b81526004016104aa9061211a565b6001600160a01b0381166000908152600c60205260409020600781015460ff161515600114610daf5760405162461bcd60e51b815260206004820152601360248201527214da1bdd5b190810994810dbdb5c1b195d1959606a1b60448201526064016104aa565b60015460048201546040516001600160a01b039092169181156108fc0291906000818181858888f19350505050158015610ded573d6000803e3d6000fd5b50600154600382015460405163a9059cbb60e01b81526001600160a01b03928316600482015260248101919091529083169063a9059cbb906044016020604051808303816000875af1158015610e47573d6000803e3d6000fd5b505050506040513d601f19601f82011682018060405250810190610e6b91906120fd565b505050565b602082015160009081610e83848361218d565b9050600085602001518660400151610e9b91906121a0565b90506000610ea983836121b7565b90506000876040015182610ebd919061218d565b955050505050505b92915050565b6001546001600160a01b03163314610ef55760405162461bcd60e51b81526004016104aa9061211a565b60008111610f155760405162461bcd60e51b81526004016104aa906121d9565b600655565b6001600160a01b0383166000908152600c60205260409020600781015460ff1615610f7e5760405162461bcd60e51b815260206004820152601460248201527314da1bdd5b1908139bdd0810dbdb5c1b195d195960621b60448201526064016104aa565b60008311610f9e5760405162461bcd60e51b81526004016104aa906121d9565b604080516101008101825282546001600160a01b03168152600183015460208201526002830154918101919091526003820154606082015260048201546080820152600582015460a0820152600682015460c0820152600782015460ff16151560e08201526000906110109085610e70565b90508082600401541015611025575060048101545b828110156110755760405162461bcd60e51b815260206004820152601960248201527f53686f756c64204265204c6172676572207468616e204d696e0000000000000060448201526064016104aa565b60006127108260075461108891906121a0565b61109291906121b7565b6002546040519192506001600160a01b03169082156108fc029083906000818181858888f193505050501580156110cd573d6000803e3d6000fd5b50336108fc6110dc838561218d565b6040518115909202916000818181858888f19350505050158015611104573d6000803e3d6000fd5b506040516323b872dd60e01b8152336004820152306024820152604481018690526001600160a01b038716906323b872dd906064016020604051808303816000875af1158015611158573d6000803e3d6000fd5b505050506040513d601f19601f8201168201806040525081019061117c91906120fd565b506001600160a01b0386166000908152600e6020908152604080832033845290915290205460ff16611208576001600160a01b0386166000818152600d60209081526040808320600a018054600181810183559185528385200180546001600160a01b03191633908117909155948452600e8352818420948452939091529020805460ff191690911790555b8483600301600082825461121c9190612210565b92505081905550848360010160008282546112379190612210565b9250508190555081836002016000828254611252919061218d565b925050819055508183600401600082825461126d919061218d565b9091555050600283015460018401546040805185815260208101899052600081830152426060820152608081019390935260a08301919091525133916001600160a01b038916917f671f6af1a2244f88c1a5e6c6310f86653d313027950723ffc12387348a9ed8b39181900360c00190a3505050505050565b6112ee611c04565b506001600160a01b039081166000908152600c6020908152604091829020825161010081018452815490941684526001810154918401919091526002810154918301919091526003810154606083015260048101546080830152600581015460a0830152600681015460c08301526007015460ff16151560e082015290565b6001600160a01b0383166000908152600c60205260409020826113a25760405162461bcd60e51b81526004016104aa906121d9565b600781015460ff16156113ee5760405162461bcd60e51b815260206004820152601460248201527314da1bdd5b1908139bdd0810dbdb5c1b195d195960621b60448201526064016104aa565b6000838260030154611400919061218d565b90506000826005015482606461141691906121a0565b61142091906121b7565b9050601481116114645760405162461bcd60e51b815260206004820152600f60248201526e213abc9020b6b7bab73a1027bb32b960891b60448201526064016104aa565b604080516101008101825284546001600160a01b03168152600185015460208201526002850154918101919091526003840154606082015260048401546080820152600584015460a0820152600684015460c0820152600784015460ff16151560e08201526000906114d69087610e70565b9050848111156115175760405162461bcd60e51b815260206004820152600c60248201526b13585e08115d1a0810dbdcdd60a21b60448201526064016104aa565b60006127108260075461152a91906121a0565b61153491906121b7565b90506000611542828461218d565b9050823410156115865760405162461bcd60e51b815260206004820152600f60248201526e115e18d95959081155120810dbdcdd608a1b60448201526064016104aa565b6002546040516001600160a01b039091169083156108fc029084906000818181858888f193505050501580156115c0573d6000803e3d6000fd5b5060405163a9059cbb60e01b8152336004820152602481018990526001600160a01b038a169063a9059cbb906044016020604051808303816000875af115801561160e573d6000803e3d6000fd5b505050506040513d601f19601f8201168201806040525081019061163291906120fd565b506001600160a01b0389166000908152600e6020908152604080832033845290915290205460ff166116be576001600160a01b0389166000818152600d602090815260408083206009018054600181810183559185528385200180546001600160a01b03191633908117909155948452600e8352818420948452939091529020805460ff191690911790555b878660030160008282546116d2919061218d565b92505081905550878660010160008282546116ed919061218d565b92505081905550808660020160008282546117089190612210565b92505081905550808660040160008282546117239190612210565b909155505060038601546005870154600288015460009291611744916121a0565b61174e91906121b7565b9050600087600501548860030154606461176891906121a0565b61177291906121b7565b905087600601548211806117865750601481105b156117e25760078801805460ff191660011790556040516001600160a01b038c169033907f50e82f857ece413f502ecf1e6db36e3f6f1c118bb444db8409896b1bf1d11e3d906117d99042815260200190565b60405180910390a35b60028801546001808a015460408051898152602081018f905280820193909352426060840152608083019390935260a0820152905133916001600160a01b038e16917f671f6af1a2244f88c1a5e6c6310f86653d313027950723ffc12387348a9ed8b39181900360c00190a35050505050505050505050565b6001600160a01b0381166000908152600d602090815260409182902060098101805484518185028101850190955280855260609485949293600a0192909184918301828280156118d457602002820191906000526020600020905b81546001600160a01b031681526001909101906020018083116118b6575b505050505091508080548060200260200160405190810160405280929190818152602001828054801561193057602002820191906000526020600020905b81546001600160a01b03168152600190910190602001808311611912575b5050505050905091509150915091565b60008151116119915760405162461bcd60e51b815260206004820152601760248201527f436f6d6d656e742063616e6e6f7420626520656d70747900000000000000000060448201526064016104aa565b610118815111156119d75760405162461bcd60e51b815260206004820152601060248201526f436f6d6d656e7420746f6f206c6f6e6760801b60448201526064016104aa565b60408051606081018252338152602080820184815242838501526001600160a01b038681166000908152600d845294852060080180546001808201835591875293909520845160039094020180546001600160a01b03191693909116929092178255519192839290820190611a4c9082612271565b50604082015181600201555050505050565b6001546001600160a01b03163314611a885760405162461bcd60e51b81526004016104aa9061211a565b6001600160a01b038116611ad15760405162461bcd60e51b815260206004820152601060248201526f4e6f6e207a65726f204164647265737360801b60448201526064016104aa565b600280546001600160a01b0319166001600160a01b0392909216919091179055565b6001546001600160a01b03163314611b1d5760405162461bcd60e51b81526004016104aa9061211a565b600082118015611b2d5750600081115b611b495760405162461bcd60e51b81526004016104aa906121d9565b600791909155600855565b6001546001600160a01b03163314611b7e5760405162461bcd60e51b81526004016104aa9061211a565b600081118015611b8e5750600082115b611baa5760405162461bcd60e51b81526004016104aa906121d9565b600391909155600455565b6001546001600160a01b03163314611bdf5760405162461bcd60e51b81526004016104aa9061211a565b60008111611bff5760405162461bcd60e51b81526004016104aa906121d9565b600555565b60405180610100016040528060006001600160a01b031681526020016000815260200160008152602001600081526020016000815260200160008152602001600081526020016000151581525090565b80356001600160a01b0381168114611c6b57600080fd5b919050565b60008060408385031215611c8357600080fd5b611c8c83611c54565b946020939093013593505050565b600060208284031215611cac57600080fd5b611cb582611c54565b9392505050565b600082825180855260208501945060208160051b8301016020850160005b83811015611d6a57601f19858403018852815160018060a01b038151168452602081015160606020860152805180606087015260005b81811015611d2d5760208184018101516080898401015201611d10565b50600060808288010152604083015160408701526080601f19601f8301168701019550505050602082019150602088019750600181019050611cda565b50909695505050505050565b602081526000611cb56020830184611cbc565b60018060a01b0381511682526020810151602083015260408101516040830152606081015160608301526080810151608083015260a081015160a083015260c081015160c083015260e0810151151560e08301525050565b600081518084526020840193506020830160005b82811015611e1c5781516001600160a01b0316865260209586019590910190600101611df5565b5093949350505050565b611e308186611d89565b6101606101008201526000611e49610160830186611cbc565b828103610120840152611e5c8186611de1565b9050828103610140840152611e718185611de1565b979650505050505050565b602081526000611cb56020830184611de1565b634e487b7160e01b600052604160045260246000fd5b604051610100810167ffffffffffffffff81118282101715611ec957611ec9611e8f565b60405290565b604051601f8201601f1916810167ffffffffffffffff81118282101715611ef857611ef8611e8f565b604052919050565b8015158114611f0e57600080fd5b50565b600080828403610120811215611f2657600080fd5b610100811215611f3557600080fd5b50611f3e611ea5565b611f4784611c54565b81526020848101359082015260408085013590820152606080850135908201526080808501359082015260a0808501359082015260c0808501359082015260e0840135611f9381611f00565b60e082015294610100939093013593505050565b600060208284031215611fb957600080fd5b5035919050565b600080600060608486031215611fd557600080fd5b611fde84611c54565b95602085013595506040909401359392505050565b6101008101610ec58284611d89565b6040815260006120156040830185611de1565b82810360208401526120278185611de1565b95945050505050565b6000806040838503121561204357600080fd5b61204c83611c54565b9150602083013567ffffffffffffffff81111561206857600080fd5b8301601f8101851361207957600080fd5b803567ffffffffffffffff81111561209357612093611e8f565b6120a6601f8201601f1916602001611ecf565b8181528660208385010111156120bb57600080fd5b816020840160208301376000602083830101528093505050509250929050565b600080604083850312156120ee57600080fd5b50508035926020909101359150565b60006020828403121561210f57600080fd5b8151611cb581611f00565b6020808252600990820152682737ba1027bbb732b960b91b604082015260600190565b600181811c9082168061215157607f821691505b60208210810361217157634e487b7160e01b600052602260045260246000fd5b50919050565b634e487b7160e01b600052601160045260246000fd5b81810381811115610ec557610ec5612177565b8082028115828204841417610ec557610ec5612177565b6000826121d457634e487b7160e01b600052601260045260246000fd5b500490565b60208082526017908201527f53686f756c64204c6172676572207468616e207a65726f000000000000000000604082015260600190565b80820180821115610ec557610ec5612177565b601f821115610e6b57806000526020600020601f840160051c8101602085101561224a5750805b601f840160051c820191505b8181101561226a5760008155600101612256565b5050505050565b815167ffffffffffffffff81111561228b5761228b611e8f565b61229f81612299845461213d565b84612223565b6020601f8211600181146122d357600083156122bb5750848201515b600019600385901b1c1916600184901b17845561226a565b600084815260208120601f198516915b8281101561230357878501518255602094850194600190920191016122e3565b50848210156123215786840151600019600387901b60f8161c191681555b50505050600190811b0190555056fea2646970667358221220bf4aed49df36a34c6bbb09f5cac1b892b68fafa8f5371f718a351a52a542d81964736f6c634300081c0033","linkReferences":{}},"methodIdentifiers":{"addComment(address,string)":"e2005b98","bondingCurve(address)":"d0c58e48","buy(address,uint256,uint256)":"a59ac6dd","calculateEthCost((address,uint256,uint256,uint256,uint256,uint256,uint256,bool),uint256)":"616af175","createPool(address,uint256)":"12d36171","getAllTokens()":"2a5c792a","getBondingCurve(address)":"83db2a21","getComments(address)":"17fe375f","getContractBalance()":"6f9fb98a","getCreateFee()":"4244a6e2","getTokenDetail(address)":"29d84e58","getTraders(address)":"c16c72c0","sell(address,uint256,uint256)":"6a272462","setFeeAmount(uint256,uint256)":"e8dc132b","setFeeRecipient(address)":"e74b981b","setInitialVirtualReserves(uint256,uint256)":"efc2ead8","setMcapLimit(uint256)":"648f6aeb","setOwner(address)":"13af4035","setTotalSupply(uint256)":"f7ea7a3d","withdraw(address)":"51cff8d9"},"id":0}