{"abi":[{"type":"constructor","inputs":[],"stateMutability":"nonpayable"},{"type":"function","name":"INITIAL_AMOUNT","inputs":[],"outputs":[{"name":"","type":"uint256","internalType":"uint256"}],"stateMutability":"view"},{"type":"function","name":"contractAddress","inputs":[],"outputs":[{"name":"","type":"address","internalType":"address"}],"stateMutability":"view"},{"type":"function","name":"currentTokenIndex","inputs":[],"outputs":[{"name":"","type":"uint256","internalType":"uint256"}],"stateMutability":"view"},{"type":"function","name":"deployERC20Token","inputs":[{"name":"name","type":"string","internalType":"string"},{"name":"ticker","type":"string","internalType":"string"}],"outputs":[],"stateMutability":"payable"},{"type":"function","name":"setPoolAddress","inputs":[{"name":"newAddr","type":"address","internalType":"address"}],"outputs":[],"stateMutability":"nonpayable"},{"type":"function","name":"taxAddress","inputs":[],"outputs":[{"name":"","type":"address","internalType":"address"}],"stateMutability":"view"},{"type":"function","name":"tokens","inputs":[{"name":"","type":"uint256","internalType":"uint256"}],"outputs":[{"name":"tokenAddress","type":"address","internalType":"address"},{"name":"tokenName","type":"string","internalType":"string"},{"name":"tokenSymbol","type":"string","internalType":"string"},{"name":"totalSupply","type":"uint256","internalType":"uint256"}],"stateMutability":"view"}],"bytecode":{"object":"0x60a0604052600080556b033b2e3c9fd0803ce8000000608052600280546001600160a01b03191673044421aabf1c584cd594f9c10b0bbc98546cf8bc17905534801561004a57600080fd5b506080516115fc610081600039600081816087015281816101950152818161020f015281816102fc015261045801526115fc6000f3fe6080604052600436106100705760003560e01c8063b7bda68f1161004e578063b7bda68f14610101578063e9e15b4f14610139578063f6b4dfb414610159578063fdebc46b1461017957600080fd5b806313982e37146100755780632c21fc1e146100bc5780634f64b2be146100d1575b600080fd5b34801561008157600080fd5b506100a97f000000000000000000000000000000000000000000000000000000000000000081565b6040519081526020015b60405180910390f35b6100cf6100ca366004610736565b61018f565b005b3480156100dd57600080fd5b506100f16100ec36600461079f565b6104c3565b6040516100b394939291906107fe565b34801561010d57600080fd5b50600254610121906001600160a01b031681565b6040516001600160a01b0390911681526020016100b3565b34801561014557600080fd5b506100cf610154366004610846565b610619565b34801561016557600080fd5b50600154610121906001600160a01b031681565b34801561018557600080fd5b506100a960005481565b600082827f00000000000000000000000000000000000000000000000000000000000000006040516101c090610684565b6101cc93929190610876565b604051809103906000f0801580156101e8573d6000803e3d6000fd5b50604080516080810182526001600160a01b038381168252602082018781529282018690527f000000000000000000000000000000000000000000000000000000000000000060608301526003805460018101825560009190915282517fc2575a0e9e593c00f959f8c92f12db2869c3395a3b0502d05e2516446f71f85b600490920291820180546001600160a01b031916919093161782559251939450909290917fc2575a0e9e593c00f959f8c92f12db2869c3395a3b0502d05e2516446f71f85c01906102b79082610935565b50604082015160028201906102cc9082610935565b506060919091015160039091015560015460405163095ea7b360e01b81526001600160a01b0391821660048201527f000000000000000000000000000000000000000000000000000000000000000060248201529082169063095ea7b3906044016020604051808303816000875af115801561034c573d6000803e3d6000fd5b505050506040513d601f19601f8201168201806040525081019061037091906109f4565b5060015460408051632122537160e11b815290516000926001600160a01b031691634244a6e29160048083019260209291908290030181865afa1580156103bb573d6000803e3d6000fd5b505050506040513d601f19601f820116820180604052508101906103df9190610a16565b9050803410156104365760405162461bcd60e51b815260206004820152601e60248201527f496e7075742042616c616e63652053686f756c64204265206c6172676572000060448201526064015b60405180910390fd5b6001546040516312d3617160e01b81526001600160a01b0384811660048301527f00000000000000000000000000000000000000000000000000000000000000006024830152909116906312d361719083906044016000604051808303818588803b1580156104a457600080fd5b505af11580156104b8573d6000803e3d6000fd5b505050505050505050565b600381815481106104d357600080fd5b6000918252602090912060049091020180546001820180546001600160a01b03909216935090610502906108ac565b80601f016020809104026020016040519081016040528092919081815260200182805461052e906108ac565b801561057b5780601f106105505761010080835404028352916020019161057b565b820191906000526020600020905b81548152906001019060200180831161055e57829003601f168201915b505050505090806002018054610590906108ac565b80601f01602080910402602001604051908101604052809291908181526020018280546105bc906108ac565b80156106095780601f106105de57610100808354040283529160200191610609565b820191906000526020600020905b8154815290600101906020018083116105ec57829003601f168201915b5050505050908060030154905084565b6001600160a01b0381166106625760405162461bcd60e51b815260206004820152601060248201526f4e6f6e207a65726f204164647265737360801b604482015260640161042d565b600180546001600160a01b0319166001600160a01b0392909216919091179055565b610b9780610a3083390190565b634e487b7160e01b600052604160045260246000fd5b600082601f8301126106b857600080fd5b813567ffffffffffffffff8111156106d2576106d2610691565b604051601f8201601f19908116603f0116810167ffffffffffffffff8111828210171561070157610701610691565b60405281815283820160200185101561071957600080fd5b816020850160208301376000918101602001919091529392505050565b6000806040838503121561074957600080fd5b823567ffffffffffffffff81111561076057600080fd5b61076c858286016106a7565b925050602083013567ffffffffffffffff81111561078957600080fd5b610795858286016106a7565b9150509250929050565b6000602082840312156107b157600080fd5b5035919050565b6000815180845260005b818110156107de576020818501810151868301820152016107c2565b506000602082860101526020601f19601f83011685010191505092915050565b6001600160a01b0385168152608060208201819052600090610822908301866107b8565b828103604084015261083481866107b8565b91505082606083015295945050505050565b60006020828403121561085857600080fd5b81356001600160a01b038116811461086f57600080fd5b9392505050565b60608152600061088960608301866107b8565b828103602084015261089b81866107b8565b915050826040830152949350505050565b600181811c908216806108c057607f821691505b6020821081036108e057634e487b7160e01b600052602260045260246000fd5b50919050565b601f82111561093057806000526020600020601f840160051c8101602085101561090d5750805b601f840160051c820191505b8181101561092d5760008155600101610919565b50505b505050565b815167ffffffffffffffff81111561094f5761094f610691565b6109638161095d84546108ac565b846108e6565b6020601f821160018114610997576000831561097f5750848201515b600019600385901b1c1916600184901b17845561092d565b600084815260208120601f198516915b828110156109c757878501518255602094850194600190920191016109a7565b50848210156109e55786840151600019600387901b60f8161c191681555b50505050600190811b01905550565b600060208284031215610a0657600080fd5b8151801515811461086f57600080fd5b600060208284031215610a2857600080fd5b505191905056fe608060405234801561001057600080fd5b50604051610b97380380610b9783398101604081905261002f91610287565b8282600361003d8382610382565b50600461004a8282610382565b50505061005d338261006560201b60201c565b505050610467565b6001600160a01b0382166100945760405163ec442f0560e01b8152600060048201526024015b60405180910390fd5b6100a0600083836100a4565b5050565b6001600160a01b0383166100cf5780600260008282546100c49190610440565b909155506101419050565b6001600160a01b038316600090815260208190526040902054818110156101225760405163391434e360e21b81526001600160a01b0385166004820152602481018290526044810183905260640161008b565b6001600160a01b03841660009081526020819052604090209082900390555b6001600160a01b03821661015d5760028054829003905561017c565b6001600160a01b03821660009081526020819052604090208054820190555b816001600160a01b0316836001600160a01b03167fddf252ad1be2c89b69c2b068fc378daa952ba7f163c4a11628f55a4df523b3ef836040516101c191815260200190565b60405180910390a3505050565b634e487b7160e01b600052604160045260246000fd5b600082601f8301126101f557600080fd5b81516001600160401b0381111561020e5761020e6101ce565b604051601f8201601f19908116603f011681016001600160401b038111828210171561023c5761023c6101ce565b60405281815283820160200185101561025457600080fd5b60005b8281101561027357602081860181015183830182015201610257565b506000918101602001919091529392505050565b60008060006060848603121561029c57600080fd5b83516001600160401b038111156102b257600080fd5b6102be868287016101e4565b602086015190945090506001600160401b038111156102dc57600080fd5b6102e8868287016101e4565b925050604084015190509250925092565b600181811c9082168061030d57607f821691505b60208210810361032d57634e487b7160e01b600052602260045260246000fd5b50919050565b601f82111561037d57806000526020600020601f840160051c8101602085101561035a5750805b601f840160051c820191505b8181101561037a5760008155600101610366565b50505b505050565b81516001600160401b0381111561039b5761039b6101ce565b6103af816103a984546102f9565b84610333565b6020601f8211600181146103e357600083156103cb5750848201515b600019600385901b1c1916600184901b17845561037a565b600084815260208120601f198516915b8281101561041357878501518255602094850194600190920191016103f3565b50848210156104315786840151600019600387901b60f8161c191681555b50505050600190811b01905550565b8082018082111561046157634e487b7160e01b600052601160045260246000fd5b92915050565b610721806104766000396000f3fe608060405234801561001057600080fd5b50600436106100935760003560e01c8063313ce56711610066578063313ce567146100fe57806370a082311461010d57806395d89b4114610136578063a9059cbb1461013e578063dd62ed3e1461015157600080fd5b806306fdde0314610098578063095ea7b3146100b657806318160ddd146100d957806323b872dd146100eb575b600080fd5b6100a061018a565b6040516100ad919061056a565b60405180910390f35b6100c96100c43660046105d4565b61021c565b60405190151581526020016100ad565b6002545b6040519081526020016100ad565b6100c96100f93660046105fe565b610236565b604051601281526020016100ad565b6100dd61011b36600461063b565b6001600160a01b031660009081526020819052604090205490565b6100a061025a565b6100c961014c3660046105d4565b610269565b6100dd61015f36600461065d565b6001600160a01b03918216600090815260016020908152604080832093909416825291909152205490565b60606003805461019990610690565b80601f01602080910402602001604051908101604052809291908181526020018280546101c590610690565b80156102125780601f106101e757610100808354040283529160200191610212565b820191906000526020600020905b8154815290600101906020018083116101f557829003601f168201915b5050505050905090565b60003361022a818585610277565b60019150505b92915050565b600033610244858285610289565b61024f85858561030c565b506001949350505050565b60606004805461019990610690565b60003361022a81858561030c565b610284838383600161036b565b505050565b6001600160a01b03838116600090815260016020908152604080832093861683529290522054600019811461030657818110156102f757604051637dc7a0d960e11b81526001600160a01b038416600482015260248101829052604481018390526064015b60405180910390fd5b6103068484848403600061036b565b50505050565b6001600160a01b03831661033657604051634b637e8f60e11b8152600060048201526024016102ee565b6001600160a01b0382166103605760405163ec442f0560e01b8152600060048201526024016102ee565b610284838383610440565b6001600160a01b0384166103955760405163e602df0560e01b8152600060048201526024016102ee565b6001600160a01b0383166103bf57604051634a1406b160e11b8152600060048201526024016102ee565b6001600160a01b038085166000908152600160209081526040808320938716835292905220829055801561030657826001600160a01b0316846001600160a01b03167f8c5be1e5ebec7d5bd14f71427d1e84f3dd0314c0f7b2291e5b200ac8c7c3b9258460405161043291815260200190565b60405180910390a350505050565b6001600160a01b03831661046b57806002600082825461046091906106ca565b909155506104dd9050565b6001600160a01b038316600090815260208190526040902054818110156104be5760405163391434e360e21b81526001600160a01b038516600482015260248101829052604481018390526064016102ee565b6001600160a01b03841660009081526020819052604090209082900390555b6001600160a01b0382166104f957600280548290039055610518565b6001600160a01b03821660009081526020819052604090208054820190555b816001600160a01b0316836001600160a01b03167fddf252ad1be2c89b69c2b068fc378daa952ba7f163c4a11628f55a4df523b3ef8360405161055d91815260200190565b60405180910390a3505050565b602081526000825180602084015260005b81811015610598576020818601810151604086840101520161057b565b506000604082850101526040601f19601f83011684010191505092915050565b80356001600160a01b03811681146105cf57600080fd5b919050565b600080604083850312156105e757600080fd5b6105f0836105b8565b946020939093013593505050565b60008060006060848603121561061357600080fd5b61061c846105b8565b925061062a602085016105b8565b929592945050506040919091013590565b60006020828403121561064d57600080fd5b610656826105b8565b9392505050565b6000806040838503121561067057600080fd5b610679836105b8565b9150610687602084016105b8565b90509250929050565b600181811c908216806106a457607f821691505b6020821081036106c457634e487b7160e01b600052602260045260246000fd5b50919050565b8082018082111561023057634e487b7160e01b600052601160045260246000fdfea2646970667358221220b4da7231dc682d401ad42ea8747897c9aaaa0253b9bce4de898f353e62b426ca64736f6c634300081c0033a2646970667358221220796d32bbfdba0aa5e4332334e5c3fd53e4f013445db9f505ec1ed5f66a0eeeab64736f6c634300081c0033","linkReferences":{}},"methodIdentifiers":{"INITIAL_AMOUNT()":"13982e37","contractAddress()":"f6b4dfb4","currentTokenIndex()":"fdebc46b","deployERC20Token(string,string)":"2c21fc1e","setPoolAddress(address)":"e9e15b4f","taxAddress()":"b7bda68f","tokens(uint256)":"4f64b2be"},"id":3}